{
  "_format": "hh-sol-artifact-1",
  "contractName": "ERC20Pool",
  "sourceName": "contracts/ERC20Pool.sol",
  "abi": [
    {
      "inputs": [],
      "stateMutability": "nonpayable",
      "type": "constructor"
    },
    {
      "anonymous": false,
      "inputs": [
        {
          "indexed": false,
          "internalType": "address",
          "name": "erc20",
          "type": "address"
        },
        {
          "indexed": false,
          "internalType": "uint256",
          "name": "amount",
          "type": "uint256"
        },
        {
          "indexed": false,
          "internalType": "uint256",
          "name": "newAmount",
          "type": "uint256"
        }
      ],
      "name": "LockedAmount",
      "type": "event"
    },
    {
      "anonymous": false,
      "inputs": [
        {
          "indexed": true,
          "internalType": "address",
          "name": "previousOwner",
          "type": "address"
        },
        {
          "indexed": true,
          "internalType": "address",
          "name": "newOwner",
          "type": "address"
        }
      ],
      "name": "OwnershipTransferred",
      "type": "event"
    },
    {
      "anonymous": false,
      "inputs": [
        {
          "indexed": false,
          "internalType": "address",
          "name": "erc20",
          "type": "address"
        },
        {
          "indexed": false,
          "internalType": "uint256",
          "name": "amount",
          "type": "uint256"
        }
      ],
      "name": "TransferedAmount",
      "type": "event"
    },
    {
      "anonymous": false,
      "inputs": [
        {
          "indexed": false,
          "internalType": "address",
          "name": "erc20",
          "type": "address"
        },
        {
          "indexed": false,
          "internalType": "uint256",
          "name": "amount",
          "type": "uint256"
        },
        {
          "indexed": false,
          "internalType": "uint256",
          "name": "newAmount",
          "type": "uint256"
        }
      ],
      "name": "UnlockedAmount",
      "type": "event"
    },
    {
      "inputs": [
        {
          "internalType": "address",
          "name": "_erc20Address",
          "type": "address"
        }
      ],
      "name": "getLockedAmount",
      "outputs": [
        {
          "internalType": "uint256",
          "name": "",
          "type": "uint256"
        }
      ],
      "stateMutability": "view",
      "type": "function"
    },
    {
      "inputs": [
        {
          "internalType": "address",
          "name": "_erc20Address",
          "type": "address"
        }
      ],
      "name": "getUnLockedAmount",
      "outputs": [
        {
          "internalType": "uint256",
          "name": "",
          "type": "uint256"
        }
      ],
      "stateMutability": "view",
      "type": "function"
    },
    {
      "inputs": [
        {
          "internalType": "address",
          "name": "_erc20Address",
          "type": "address"
        },
        {
          "internalType": "uint256",
          "name": "_amount",
          "type": "uint256"
        }
      ],
      "name": "lock",
      "outputs": [],
      "stateMutability": "nonpayable",
      "type": "function"
    },
    {
      "inputs": [
        {
          "internalType": "contract IERC20",
          "name": "",
          "type": "address"
        }
      ],
      "name": "lockedErc20Balance",
      "outputs": [
        {
          "internalType": "uint256",
          "name": "",
          "type": "uint256"
        }
      ],
      "stateMutability": "view",
      "type": "function"
    },
    {
      "inputs": [],
      "name": "owner",
      "outputs": [
        {
          "internalType": "address",
          "name": "",
          "type": "address"
        }
      ],
      "stateMutability": "view",
      "type": "function"
    },
    {
      "inputs": [
        {
          "internalType": "address",
          "name": "_erc20Address",
          "type": "address"
        },
        {
          "internalType": "uint256",
          "name": "_amount",
          "type": "uint256"
        }
      ],
      "name": "receiveFee",
      "outputs": [],
      "stateMutability": "nonpayable",
      "type": "function"
    },
    {
      "inputs": [],
      "name": "renounceOwnership",
      "outputs": [],
      "stateMutability": "nonpayable",
      "type": "function"
    },
    {
      "inputs": [
        {
          "internalType": "address",
          "name": "_address",
          "type": "address"
        }
      ],
      "name": "setOptionTrigger",
      "outputs": [],
      "stateMutability": "nonpayable",
      "type": "function"
    },
    {
      "inputs": [
        {
          "internalType": "address",
          "name": "newOwner",
          "type": "address"
        }
      ],
      "name": "transferOwnership",
      "outputs": [],
      "stateMutability": "nonpayable",
      "type": "function"
    },
    {
      "inputs": [
        {
          "internalType": "address",
          "name": "_erc20Address",
          "type": "address"
        },
        {
          "internalType": "address",
          "name": "_buyer",
          "type": "address"
        },
        {
          "internalType": "uint256",
          "name": "_amount",
          "type": "uint256"
        }
      ],
      "name": "transferTo",
      "outputs": [],
      "stateMutability": "nonpayable",
      "type": "function"
    },
    {
      "inputs": [
        {
          "internalType": "uint256",
          "name": "_amount",
          "type": "uint256"
        },
        {
          "internalType": "address",
          "name": "_erc20Address",
          "type": "address"
        }
      ],
      "name": "unlock",
      "outputs": [],
      "stateMutability": "nonpayable",
      "type": "function"
    },
    {
      "inputs": [
        {
          "internalType": "contract IERC20",
          "name": "",
          "type": "address"
        }
      ],
      "name": "unlockedErc20Balance",
      "outputs": [
        {
          "internalType": "uint256",
          "name": "",
          "type": "uint256"
        }
      ],
      "stateMutability": "view",
      "type": "function"
    }
  ],
  "bytecode": "0x608060405234801561001057600080fd5b5061002d61002261003260201b60201c565b61003a60201b60201c565b6100fe565b600033905090565b60008060009054906101000a900473ffffffffffffffffffffffffffffffffffffffff169050816000806101000a81548173ffffffffffffffffffffffffffffffffffffffff021916908373ffffffffffffffffffffffffffffffffffffffff1602179055508173ffffffffffffffffffffffffffffffffffffffff168173ffffffffffffffffffffffffffffffffffffffff167f8be0079c531659141344cd1fd0a4f28419497f9722a3daafe3b4186f6b6457e060405160405180910390a35050565b6116d18061010d6000396000f3fe608060405234801561001057600080fd5b50600436106100b45760003560e01c80638da5cb5b116100715780638da5cb5b14610177578063929ec537146101955780639a87b668146101c5578063a5f2a152146101f5578063f1d2ec1d14610211578063f2fde38b1461022d576100b4565b806302e4160f146100b95780632316ad32146100d5578063282d3fdf146100f15780632d789bfc1461010d578063715018a61461013d5780637688913a14610147575b600080fd5b6100d360048036038101906100ce9190610f7c565b610249565b005b6100ef60048036038101906100ea9190610fdf565b610306565b005b61010b60048036038101906101069190610fdf565b6103c0565b005b6101276004803603810190610122919061105d565b61054a565b6040516101349190611099565b60405180910390f35b610145610562565b005b610161600480360381019061015c919061105d565b610576565b60405161016e9190611099565b60405180910390f35b61017f61058e565b60405161018c91906110c3565b60405180910390f35b6101af60048036038101906101aa9190610f7c565b6105b7565b6040516101bc9190611099565b60405180910390f35b6101df60048036038101906101da9190610f7c565b610671565b6040516101ec9190611099565b60405180910390f35b61020f600480360381019061020a91906110de565b61072b565b005b61022b60048036038101906102269190611131565b610a58565b005b61024760048036038101906102429190610f7c565b610d4c565b005b610251610dcf565b80600073ffffffffffffffffffffffffffffffffffffffff168173ffffffffffffffffffffffffffffffffffffffff16036102c1576040517f08c379a00000000000000000000000000000000000000000000000000000000081526004016102b8906111ce565b60405180910390fd5b81600360006101000a81548173ffffffffffffffffffffffffffffffffffffffff021916908373ffffffffffffffffffffffffffffffffffffffff1602179055505050565b81600073ffffffffffffffffffffffffffffffffffffffff168173ffffffffffffffffffffffffffffffffffffffff1603610376576040517f08c379a000000000000000000000000000000000000000000000000000000000815260040161036d906111ce565b60405180910390fd5b81600081116103ba576040517f08c379a00000000000000000000000000000000000000000000000000000000081526004016103b19061123a565b60405180910390fd5b50505050565b81600073ffffffffffffffffffffffffffffffffffffffff168173ffffffffffffffffffffffffffffffffffffffff1603610430576040517f08c379a0000000000000000000000000000000000000000000000000000000008152600401610427906111ce565b60405180910390fd5b8160008111610474576040517f08c379a000000000000000000000000000000000000000000000000000000000815260040161046b9061123a565b60405180910390fd5b82600160008673ffffffffffffffffffffffffffffffffffffffff1673ffffffffffffffffffffffffffffffffffffffff16815260200190815260200160002060008282546104c39190611289565b925050819055507fef796ad91fbed3c93c8b68b1b06294c1037fa534484d1e4058850c04e46af5bb8484600160008873ffffffffffffffffffffffffffffffffffffffff1673ffffffffffffffffffffffffffffffffffffffff1681526020019081526020016000205460405161053c939291906112bd565b60405180910390a150505050565b60026020528060005260406000206000915090505481565b61056a610dcf565b6105746000610e4d565b565b60016020528060005260406000206000915090505481565b60008060009054906101000a900473ffffffffffffffffffffffffffffffffffffffff16905090565b600081600073ffffffffffffffffffffffffffffffffffffffff168173ffffffffffffffffffffffffffffffffffffffff1603610629576040517f08c379a0000000000000000000000000000000000000000000000000000000008152600401610620906111ce565b60405180910390fd5b600160008473ffffffffffffffffffffffffffffffffffffffff1673ffffffffffffffffffffffffffffffffffffffff16815260200190815260200160002054915050919050565b600081600073ffffffffffffffffffffffffffffffffffffffff168173ffffffffffffffffffffffffffffffffffffffff16036106e3576040517f08c379a00000000000000000000000000000000000000000000000000000000081526004016106da906111ce565b60405180910390fd5b600260008473ffffffffffffffffffffffffffffffffffffffff1673ffffffffffffffffffffffffffffffffffffffff16815260200190815260200160002054915050919050565b33600360009054906101000a900473ffffffffffffffffffffffffffffffffffffffff1673ffffffffffffffffffffffffffffffffffffffff168173ffffffffffffffffffffffffffffffffffffffff16146107bc576040517f08c379a00000000000000000000000000000000000000000000000000000000081526004016107b390611340565b60405180910390fd5b83600073ffffffffffffffffffffffffffffffffffffffff168173ffffffffffffffffffffffffffffffffffffffff160361082c576040517f08c379a0000000000000000000000000000000000000000000000000000000008152600401610823906111ce565b60405180910390fd5b600060149054906101000a900460ff161561084657600080fd5b6001600060146101000a81548160ff02191690831515021790555082600260008773ffffffffffffffffffffffffffffffffffffffff1673ffffffffffffffffffffffffffffffffffffffff1681526020019081526020016000205410156108e3576040517f08c379a00000000000000000000000000000000000000000000000000000000081526004016108da906113ac565b60405180910390fd5b82600260008773ffffffffffffffffffffffffffffffffffffffff1673ffffffffffffffffffffffffffffffffffffffff168152602001908152602001600020600082825461093291906113cc565b9250508190555060008573ffffffffffffffffffffffffffffffffffffffff166323b872dd3087876040518463ffffffff1660e01b815260040161097893929190611400565b6020604051808303816000875af1158015610997573d6000803e3d6000fd5b505050506040513d601f19601f820116820180604052508101906109bb919061146f565b9050806109fd576040517f08c379a00000000000000000000000000000000000000000000000000000000081526004016109f4906114e8565b60405180910390fd5b7f461e9d4417faf896009ccae91420eb51c5591f4cb25208c56a8fa5854cb437398685604051610a2e929190611508565b60405180910390a15060008060146101000a81548160ff0219169083151502179055505050505050565b33600360009054906101000a900473ffffffffffffffffffffffffffffffffffffffff1673ffffffffffffffffffffffffffffffffffffffff168173ffffffffffffffffffffffffffffffffffffffff1614610ae9576040517f08c379a0000000000000000000000000000000000000000000000000000000008152600401610ae090611340565b60405180910390fd5b81600073ffffffffffffffffffffffffffffffffffffffff168173ffffffffffffffffffffffffffffffffffffffff1603610b59576040517f08c379a0000000000000000000000000000000000000000000000000000000008152600401610b50906111ce565b60405180910390fd5b8360008111610b9d576040517f08c379a0000000000000000000000000000000000000000000000000000000008152600401610b949061123a565b60405180910390fd5b84600160008673ffffffffffffffffffffffffffffffffffffffff1673ffffffffffffffffffffffffffffffffffffffff168152602001908152602001600020541015610c1f576040517f08c379a0000000000000000000000000000000000000000000000000000000008152600401610c169061157d565b60405180910390fd5b84600260008673ffffffffffffffffffffffffffffffffffffffff1673ffffffffffffffffffffffffffffffffffffffff1681526020019081526020016000206000828254610c6e9190611289565b9250508190555084600160008673ffffffffffffffffffffffffffffffffffffffff1673ffffffffffffffffffffffffffffffffffffffff1681526020019081526020016000206000828254610cc491906113cc565b925050819055507fc54f2f935d495cde63a6a396c24bf4791aa0679df902d9be10a5ebaee52ce0128486600260008873ffffffffffffffffffffffffffffffffffffffff1673ffffffffffffffffffffffffffffffffffffffff16815260200190815260200160002054604051610d3d939291906112bd565b60405180910390a15050505050565b610d54610dcf565b600073ffffffffffffffffffffffffffffffffffffffff168173ffffffffffffffffffffffffffffffffffffffff1603610dc3576040517f08c379a0000000000000000000000000000000000000000000000000000000008152600401610dba9061160f565b60405180910390fd5b610dcc81610e4d565b50565b610dd7610f11565b73ffffffffffffffffffffffffffffffffffffffff16610df561058e565b73ffffffffffffffffffffffffffffffffffffffff1614610e4b576040517f08c379a0000000000000000000000000000000000000000000000000000000008152600401610e429061167b565b60405180910390fd5b565b60008060009054906101000a900473ffffffffffffffffffffffffffffffffffffffff169050816000806101000a81548173ffffffffffffffffffffffffffffffffffffffff021916908373ffffffffffffffffffffffffffffffffffffffff1602179055508173ffffffffffffffffffffffffffffffffffffffff168173ffffffffffffffffffffffffffffffffffffffff167f8be0079c531659141344cd1fd0a4f28419497f9722a3daafe3b4186f6b6457e060405160405180910390a35050565b600033905090565b600080fd5b600073ffffffffffffffffffffffffffffffffffffffff82169050919050565b6000610f4982610f1e565b9050919050565b610f5981610f3e565b8114610f6457600080fd5b50565b600081359050610f7681610f50565b92915050565b600060208284031215610f9257610f91610f19565b5b6000610fa084828501610f67565b91505092915050565b6000819050919050565b610fbc81610fa9565b8114610fc757600080fd5b50565b600081359050610fd981610fb3565b92915050565b60008060408385031215610ff657610ff5610f19565b5b600061100485828601610f67565b925050602061101585828601610fca565b9150509250929050565b600061102a82610f3e565b9050919050565b61103a8161101f565b811461104557600080fd5b50565b60008135905061105781611031565b92915050565b60006020828403121561107357611072610f19565b5b600061108184828501611048565b91505092915050565b61109381610fa9565b82525050565b60006020820190506110ae600083018461108a565b92915050565b6110bd81610f3e565b82525050565b60006020820190506110d860008301846110b4565b92915050565b6000806000606084860312156110f7576110f6610f19565b5b600061110586828701610f67565b935050602061111686828701610f67565b925050604061112786828701610fca565b9150509250925092565b6000806040838503121561114857611147610f19565b5b600061115685828601610fca565b925050602061116785828601610f67565b9150509250929050565b600082825260208201905092915050565b7f5a65726f20616464726573730000000000000000000000000000000000000000600082015250565b60006111b8600c83611171565b91506111c382611182565b602082019050919050565b600060208201905081810360008301526111e7816111ab565b9050919050565b7f416d6f756e74206e6f742076616c696400000000000000000000000000000000600082015250565b6000611224601083611171565b915061122f826111ee565b602082019050919050565b6000602082019050818103600083015261125381611217565b9050919050565b7f4e487b7100000000000000000000000000000000000000000000000000000000600052601160045260246000fd5b600061129482610fa9565b915061129f83610fa9565b92508282019050808211156112b7576112b661125a565b5b92915050565b60006060820190506112d260008301866110b4565b6112df602083018561108a565b6112ec604083018461108a565b949350505050565b7f43616c6c6572206973206e6f742076616c696400000000000000000000000000600082015250565b600061132a601383611171565b9150611335826112f4565b602082019050919050565b600060208201905081810360008301526113598161131d565b9050919050565b7f4e6f7420656e6f75676820756e6c6f636b656420746f6b656e73000000000000600082015250565b6000611396601a83611171565b91506113a182611360565b602082019050919050565b600060208201905081810360008301526113c581611389565b9050919050565b60006113d782610fa9565b91506113e283610fa9565b92508282039050818111156113fa576113f961125a565b5b92915050565b600060608201905061141560008301866110b4565b61142260208301856110b4565b61142f604083018461108a565b949350505050565b60008115159050919050565b61144c81611437565b811461145757600080fd5b50565b60008151905061146981611443565b92915050565b60006020828403121561148557611484610f19565b5b60006114938482850161145a565b91505092915050565b7f5472616e73666572206661696c65640000000000000000000000000000000000600082015250565b60006114d2600f83611171565b91506114dd8261149c565b602082019050919050565b60006020820190508181036000830152611501816114c5565b9050919050565b600060408201905061151d60008301856110b4565b61152a602083018461108a565b9392505050565b7f4e6f7420656e6f756768206c6f636b656420746f6b656e730000000000000000600082015250565b6000611567601883611171565b915061157282611531565b602082019050919050565b600060208201905081810360008301526115968161155a565b9050919050565b7f4f776e61626c653a206e6577206f776e657220697320746865207a65726f206160008201527f6464726573730000000000000000000000000000000000000000000000000000602082015250565b60006115f9602683611171565b91506116048261159d565b604082019050919050565b60006020820190508181036000830152611628816115ec565b9050919050565b7f4f776e61626c653a2063616c6c6572206973206e6f7420746865206f776e6572600082015250565b6000611665602083611171565b91506116708261162f565b602082019050919050565b6000602082019050818103600083015261169481611658565b905091905056fea26469706673582212207d239b17a4816092d07774fd9293eeeb2e0aef3aeeaa92e7ca568075d8e32a2364736f6c63430008110033",
  "linkReferences": {},
  "deployedLinkReferences": {}
}